{
  "contractName": "COTCrowdsale",
  "abi": [
    {
      "constant": true,
      "inputs": [],
      "name": "rate",
      "outputs": [
        {
          "name": "",
          "type": "uint256"
        }
      ],
      "payable": false,
      "stateMutability": "view",
      "type": "function"
    },
    {
      "constant": true,
      "inputs": [],
      "name": "cap",
      "outputs": [
        {
          "name": "",
          "type": "uint256"
        }
      ],
      "payable": false,
      "stateMutability": "view",
      "type": "function"
    },
    {
      "constant": true,
      "inputs": [],
      "name": "weiRaised",
      "outputs": [
        {
          "name": "",
          "type": "uint256"
        }
      ],
      "payable": false,
      "stateMutability": "view",
      "type": "function"
    },
    {
      "constant": true,
      "inputs": [],
      "name": "capReached",
      "outputs": [
        {
          "name": "",
          "type": "bool"
        }
      ],
      "payable": false,
      "stateMutability": "view",
      "type": "function"
    },
    {
      "constant": true,
      "inputs": [],
      "name": "wallet",
      "outputs": [
        {
          "name": "",
          "type": "address"
        }
      ],
      "payable": false,
      "stateMutability": "view",
      "type": "function"
    },
    {
      "constant": false,
      "inputs": [],
      "name": "renounceOwnership",
      "outputs": [],
      "payable": false,
      "stateMutability": "nonpayable",
      "type": "function"
    },
    {
      "constant": true,
      "inputs": [],
      "name": "owner",
      "outputs": [
        {
          "name": "",
          "type": "address"
        }
      ],
      "payable": false,
      "stateMutability": "view",
      "type": "function"
    },
    {
      "constant": false,
      "inputs": [
        {
          "name": "_beneficiary",
          "type": "address"
        }
      ],
      "name": "buyTokens",
      "outputs": [],
      "payable": true,
      "stateMutability": "payable",
      "type": "function"
    },
    {
      "constant": false,
      "inputs": [
        {
          "name": "_newOwner",
          "type": "address"
        }
      ],
      "name": "transferOwnership",
      "outputs": [],
      "payable": false,
      "stateMutability": "nonpayable",
      "type": "function"
    },
    {
      "constant": true,
      "inputs": [],
      "name": "token",
      "outputs": [
        {
          "name": "",
          "type": "address"
        }
      ],
      "payable": false,
      "stateMutability": "view",
      "type": "function"
    },
    {
      "inputs": [
        {
          "name": "_rate",
          "type": "uint256"
        },
        {
          "name": "_wallet",
          "type": "address"
        },
        {
          "name": "_token",
          "type": "address"
        },
        {
          "name": "_limit",
          "type": "uint256"
        },
        {
          "name": "_cap",
          "type": "uint256"
        },
        {
          "name": "_percent",
          "type": "uint256"
        },
        {
          "name": "_ICOrate",
          "type": "uint256"
        },
        {
          "name": "_limitTime",
          "type": "uint256"
        },
        {
          "name": "_timeForISL",
          "type": "uint256"
        }
      ],
      "payable": false,
      "stateMutability": "nonpayable",
      "type": "constructor"
    },
    {
      "payable": true,
      "stateMutability": "payable",
      "type": "fallback"
    },
    {
      "anonymous": false,
      "inputs": [
        {
          "indexed": true,
          "name": "previousOwner",
          "type": "address"
        }
      ],
      "name": "OwnershipRenounced",
      "type": "event"
    },
    {
      "anonymous": false,
      "inputs": [
        {
          "indexed": true,
          "name": "previousOwner",
          "type": "address"
        },
        {
          "indexed": true,
          "name": "newOwner",
          "type": "address"
        }
      ],
      "name": "OwnershipTransferred",
      "type": "event"
    },
    {
      "anonymous": false,
      "inputs": [
        {
          "indexed": true,
          "name": "purchaser",
          "type": "address"
        },
        {
          "indexed": true,
          "name": "beneficiary",
          "type": "address"
        },
        {
          "indexed": false,
          "name": "value",
          "type": "uint256"
        },
        {
          "indexed": false,
          "name": "amount",
          "type": "uint256"
        }
      ],
      "name": "TokenPurchase",
      "type": "event"
    },
    {
      "constant": false,
      "inputs": [],
      "name": "ReduceRate",
      "outputs": [],
      "payable": false,
      "stateMutability": "nonpayable",
      "type": "function"
    },
    {
      "constant": false,
      "inputs": [
        {
          "name": "newlLimit",
          "type": "uint256"
        }
      ],
      "name": "ReduceMaxLimit",
      "outputs": [],
      "payable": false,
      "stateMutability": "nonpayable",
      "type": "function"
    },
    {
      "constant": false,
      "inputs": [
        {
          "name": "newTime",
          "type": "uint256"
        }
      ],
      "name": "SetMintTimeLimit",
      "outputs": [],
      "payable": false,
      "stateMutability": "nonpayable",
      "type": "function"
    },
    {
      "constant": false,
      "inputs": [],
      "name": "blockSetMintTimeLimit",
      "outputs": [],
      "payable": false,
      "stateMutability": "nonpayable",
      "type": "function"
    },
    {
      "constant": true,
      "inputs": [],
      "name": "isblockSetMintTimeLimit",
      "outputs": [
        {
          "name": "",
          "type": "bool"
        }
      ],
      "payable": false,
      "stateMutability": "view",
      "type": "function"
    },
    {
      "constant": false,
      "inputs": [],
      "name": "ISL",
      "outputs": [],
      "payable": false,
      "stateMutability": "nonpayable",
      "type": "function"
    },
    {
      "constant": false,
      "inputs": [
        {
          "name": "newTime",
          "type": "uint256"
        }
      ],
      "name": "SetISLTime",
      "outputs": [],
      "payable": false,
      "stateMutability": "nonpayable",
      "type": "function"
    },
    {
      "constant": false,
      "inputs": [],
      "name": "blockSetISLTime",
      "outputs": [],
      "payable": false,
      "stateMutability": "nonpayable",
      "type": "function"
    },
    {
      "constant": true,
      "inputs": [],
      "name": "isblockSetISLTime",
      "outputs": [
        {
          "name": "",
          "type": "bool"
        }
      ],
      "payable": false,
      "stateMutability": "view",
      "type": "function"
    },
    {
      "constant": true,
      "inputs": [],
      "name": "ReturnISLDays",
      "outputs": [
        {
          "name": "",
          "type": "uint256"
        }
      ],
      "payable": false,
      "stateMutability": "view",
      "type": "function"
    },
    {
      "constant": false,
      "inputs": [
        {
          "name": "amount",
          "type": "uint256"
        }
      ],
      "name": "SetLimitAmount",
      "outputs": [],
      "payable": false,
      "stateMutability": "nonpayable",
      "type": "function"
    },
    {
      "constant": false,
      "inputs": [],
      "name": "blockSetLimitAmount",
      "outputs": [],
      "payable": false,
      "stateMutability": "nonpayable",
      "type": "function"
    },
    {
      "constant": true,
      "inputs": [],
      "name": "isblockSetLimitAmount",
      "outputs": [
        {
          "name": "",
          "type": "bool"
        }
      ],
      "payable": false,
      "stateMutability": "view",
      "type": "function"
    },
    {
      "constant": false,
      "inputs": [
        {
          "name": "_beneficiary",
          "type": "address"
        },
        {
          "name": "_tokenAmount",
          "type": "uint256"
        }
      ],
      "name": "MintLimit",
      "outputs": [],
      "payable": false,
      "stateMutability": "nonpayable",
      "type": "function"
    },
    {
      "constant": true,
      "inputs": [],
      "name": "ReturnLimit",
      "outputs": [
        {
          "name": "",
          "type": "uint256"
        }
      ],
      "payable": false,
      "stateMutability": "view",
      "type": "function"
    },
    {
      "constant": true,
      "inputs": [],
      "name": "ReturnMinLimit",
      "outputs": [
        {
          "name": "",
          "type": "uint256"
        }
      ],
      "payable": false,
      "stateMutability": "view",
      "type": "function"
    },
    {
      "constant": true,
      "inputs": [],
      "name": "ReturnMaxLimit",
      "outputs": [
        {
          "name": "",
          "type": "uint256"
        }
      ],
      "payable": false,
      "stateMutability": "view",
      "type": "function"
    },
    {
      "constant": true,
      "inputs": [],
      "name": "iSLDate",
      "outputs": [
        {
          "name": "",
          "type": "uint256"
        }
      ],
      "payable": false,
      "stateMutability": "view",
      "type": "function"
    },
    {
      "constant": false,
      "inputs": [],
      "name": "pauseTokens",
      "outputs": [],
      "payable": false,
      "stateMutability": "nonpayable",
      "type": "function"
    },
    {
      "constant": false,
      "inputs": [],
      "name": "unpauseTokens",
      "outputs": [],
      "payable": false,
      "stateMutability": "nonpayable",
      "type": "function"
    },
    {
      "constant": false,
      "inputs": [],
      "name": "blockCallPauseTokens",
      "outputs": [],
      "payable": false,
      "stateMutability": "nonpayable",
      "type": "function"
    },
    {
      "constant": true,
      "inputs": [],
      "name": "isblockCallPauseTokens",
      "outputs": [
        {
          "name": "",
          "type": "bool"
        }
      ],
      "payable": false,
      "stateMutability": "view",
      "type": "function"
    },
    {
      "constant": false,
      "inputs": [],
      "name": "finishMint",
      "outputs": [],
      "payable": false,
      "stateMutability": "nonpayable",
      "type": "function"
    }
  ],
  "bytecode": "0x6080604052600d805462ffffff19169055600f805460ff191690553480156200002757600080fd5b50604051610120806200107b83398101604090815281516020830151918301516060840151608085015160a086015160c087015160e08801516101009098015195979495939492939192909184898989600083116200008557600080fd5b600160a060020a03821615156200009b57600080fd5b600160a060020a0381161515620000b157600080fd5b60029290925560018054600160a060020a03928316600160a060020a031991821617909155600080549290931691161781558111620000ef57600080fd5b60045560058054600160a060020a0319163317815560078790556200012490879064010000000062000cf56200019c82021704565b6006556200014286600564010000000062000cf56200019c82021704565b6008556200017b60056200016688600a64010000000062000cf56200019c82021704565b9064010000000062000cf56200019c82021704565b600955600a93909355600b91909155600c55600e5550620001b29350505050565b60008183811515620001aa57fe5b049392505050565b610eb980620001c26000396000f3006080604052600436106101875763ffffffff60e060020a6000350416630f7da56a81146101925780631f7ea074146101b957806322fa7cdb146101d157806323466e06146101e95780632c4e722e14610201578063355274ea146102165780634042b66f1461022b57806345a3b588146102405780634ead4395146102695780634f93594514610281578063521eb2731461029657806361aab82a146102c75780636bd9290a146102dc57806370d1fbc1146102f1578063715018a614610306578063788d25561461031b5780637a34abfe1461033f5780638cb8a866146103545780638da5cb5b14610369578063991524461461037e5780639c49eefd14610393578063a1d8ab33146103a8578063a417357c146103bd578063abe7691e146103d2578063b646eeef146103e7578063dfb81a9c146103fc578063e4cc18be14610411578063e5e231dd14610426578063ec8ac4d81461043b578063ed0722801461044f578063f279c9e014610464578063f2fde38b14610479578063fc0c546a1461049a575b610190336104af565b005b34801561019e57600080fd5b506101a7610551565b60408051918252519081900360200190f35b3480156101c557600080fd5b50610190600435610557565b3480156101dd57600080fd5b506101906004356105cd565b3480156101f557600080fd5b5061019060043561060d565b34801561020d57600080fd5b506101a7610639565b34801561022257600080fd5b506101a761063f565b34801561023757600080fd5b506101a7610645565b34801561024c57600080fd5b5061025561064b565b604080519115158252519081900360200190f35b34801561027557600080fd5b50610190600435610654565b34801561028d57600080fd5b50610255610680565b3480156102a257600080fd5b506102ab61068b565b60408051600160a060020a039092168252519081900360200190f35b3480156102d357600080fd5b506101a761069a565b3480156102e857600080fd5b506101906106a0565b3480156102fd57600080fd5b506102556106dd565b34801561031257600080fd5b506101906106e6565b34801561032757600080fd5b50610190600160a060020a0360043516602435610754565b34801561034b57600080fd5b506101906108de565b34801561036057600080fd5b5061025561091a565b34801561037557600080fd5b506102ab610929565b34801561038a57600080fd5b506101a7610938565b34801561039f57600080fd5b506101a761093e565b3480156103b457600080fd5b50610190610944565b3480156103c957600080fd5b5061019061096a565b3480156103de57600080fd5b506101a76109ef565b3480156103f357600080fd5b506102556109f5565b34801561040857600080fd5b50610190610a03565b34801561041d57600080fd5b50610190610a91565b34801561043257600080fd5b50610190610b28565b610190600160a060020a03600435166104af565b34801561045b57600080fd5b50610190610bae565b34801561047057600080fd5b50610190610bd6565b34801561048557600080fd5b50610190600160a060020a0360043516610c2e565b3480156104a657600080fd5b506102ab610c4e565b3460006104bc8383610c5d565b6104c582610c88565b6003549091506104db908363ffffffff610ca516565b6003556104e88382610cb2565b60408051838152602081018390528151600160a060020a0386169233927f623b3804fa71d67900d064613da8f94b9617215ee90799290593e1745087ad18929081900390910190a361053a8383610b24565b610542610cbc565b61054c8383610b24565b505050565b60085490565b6005546000908190600160a060020a0316331461057357600080fd5b600d5462010000900460ff161561058957600080fd5b505060075460065482821161059d57600080fd5b816105ae828563ffffffff610ca516565b11156105b957600092505b600083116105c657600080fd5b5050600955565b600554600090600160a060020a031633146105e757600080fd5b506007546008548210156105fa57600080fd5b8082111561060757600080fd5b50600755565b600554600160a060020a0316331461062457600080fd5b600d5460ff161561063457600080fd5b600c55565b60025481565b60045481565b60035481565b600f5460ff1690565b600554600160a060020a0316331461066b57600080fd5b600f5460ff161561067b57600080fd5b600e55565b600454600354101590565b600154600160a060020a031681565b600c5490565b600554600160a060020a031633146106b757600080fd5b600f805460ff191660011790556008546106d890600a63ffffffff610cf516565b600955565b600d5460ff1690565b600554600160a060020a031633146106fd57600080fd5b600554604051600160a060020a03909116907ff8df31144d9c2f0f6b59d69b8b98abd5459d07f2742c4df920b25aae33c6482090600090a26005805473ffffffffffffffffffffffffffffffffffffffff19169055565b6005546000908190600160a060020a0316331461077057600080fd5b61077861093e565b91506000809054906101000a9004600160a060020a0316600160a060020a03166318160ddd6040518163ffffffff1660e060020a028152600401602060405180830381600087803b1580156107cc57600080fd5b505af11580156107e0573d6000803e3d6000fd5b505050506040513d60208110156107f657600080fd5b5051905081811061080657600080fd5b81610817848363ffffffff610ca516565b111561082257600092505b6000831161082f57600080fd5b60008054604080517f40c10f19000000000000000000000000000000000000000000000000000000008152600160a060020a03888116600483015260248201889052915191909216926340c10f1992604480820193602093909283900390910190829087803b1580156108a157600080fd5b505af11580156108b5573d6000803e3d6000fd5b505050506040513d60208110156108cb57600080fd5b505115156108d857600080fd5b50505050565b600554600160a060020a031633146108f557600080fd5b600d805462ff00001916620100001790556008546106d890600a63ffffffff610cf516565b600d5462010000900460ff1690565b600554600160a060020a031681565b60075490565b60065490565b600554600160a060020a0316331461095b57600080fd5b600d805460ff19166001179055565b600554600160a060020a0316331461098157600080fd5b60008054604080517f3f4ba83a0000000000000000000000000000000000000000000000000000000081529051600160a060020a0390921692633f4ba83a9260048084019382900301818387803b1580156109db57600080fd5b505af11580156108d8573d6000803e3d6000fd5b600e5490565b600d54610100900460ff1690565b600554600090600160a060020a03163314610a1d57600080fd5b600b5460025411610a2d57600080fd5b610a55600a54610a496064600b54610cf590919063ffffffff16565b9063ffffffff610d0a16565b600b54909150610a6b908263ffffffff610ca516565b600255600a5415610a8e57600a54610a8a90600163ffffffff610d3316565b600a555b50565b600554600160a060020a03163314610aa857600080fd5b6000809054906101000a9004600160a060020a0316600160a060020a0316637d64bcb46040518163ffffffff1660e060020a028152600401602060405180830381600087803b158015610afa57600080fd5b505af1158015610b0e573d6000803e3d6000fd5b505050506040513d6020811015610b2457600080fd5b5050565b600554600160a060020a03163314610b3f57600080fd5b600d54610100900460ff1615610b5457600080fd5b60008054604080517f8456cb590000000000000000000000000000000000000000000000000000000081529051600160a060020a0390921692638456cb599260048084019382900301818387803b1580156109db57600080fd5b600554600160a060020a03163314610bc557600080fd5b600d805461ff001916610100179055565b600554600160a060020a03163314610bed57600080fd5b600c54421015610bfc57600080fd5b60075460065410610c0c57600080fd5b600954600654610c219163ffffffff610ca516565b600655600e544201600c55565b600554600160a060020a03163314610c4557600080fd5b610a8e81610d45565b600054600160a060020a031681565b610c678282610dc3565b600454600354610c7d908363ffffffff610ca516565b1115610b2457600080fd5b6000610c9f60025483610d0a90919063ffffffff16565b92915050565b81810182811015610c9f57fe5b610b248282610de4565b600154604051600160a060020a03909116903480156108fc02916000818181858888f19350505050158015610a8e573d6000803e3d6000fd5b60008183811515610d0257fe5b049392505050565b6000821515610d1b57506000610c9f565b50818102818382811515610d2b57fe5b0414610c9f57fe5b600082821115610d3f57fe5b50900390565b600160a060020a0381161515610d5a57600080fd5b600554604051600160a060020a038084169216907f8be0079c531659141344cd1fd0a4f28419497f9722a3daafe3b4186f6b6457e090600090a36005805473ffffffffffffffffffffffffffffffffffffffff1916600160a060020a0392909216919091179055565b600160a060020a0382161515610dd857600080fd5b801515610b2457600080fd5b60008054604080517f40c10f19000000000000000000000000000000000000000000000000000000008152600160a060020a03868116600483015260248201869052915191909216926340c10f1992604480820193602093909283900390910190829087803b158015610e5657600080fd5b505af1158015610e6a573d6000803e3d6000fd5b505050506040513d6020811015610e8057600080fd5b50511515610b2457600080fd00a165627a7a72305820f4d4ef9b0e3ad34d7b4d63e6832dc8604f73e9e07cf0d8673a2e915351371bc60029",
  "source": "pragma solidity ^0.4.24;\r\n\r\nimport \"openzeppelin-solidity/contracts/crowdsale/Crowdsale.sol\";\r\nimport \"openzeppelin-solidity/contracts/crowdsale/emission/MintedCrowdsale.sol\";\r\nimport \"openzeppelin-solidity/contracts/ownership/Ownable.sol\";\r\nimport \"openzeppelin-solidity/contracts/crowdsale/validation/CappedCrowdsale.sol\";\r\nimport \"openzeppelin-solidity/contracts/math/SafeMath.sol\";\r\nimport \"openzeppelin-solidity/contracts/token/ERC20/PausableToken.sol\";\r\n\r\ncontract COTCrowdsale is Crowdsale, MintedCrowdsale, CappedCrowdsale, Ownable{\r\n\r\n using SafeMath for uint256;\r\n\r\n uint256 private limit;\r\n uint256 private maxLimit;\r\n uint256 private minLimit;\r\n uint256 private limitAmount;\r\n uint256 private percent;\r\n uint256 private ICOrate;\r\n uint256 private limitTime;\r\n bool    private isSetTime = false;\r\n bool    private isCallPauseTokens = false;\r\n bool    private isSetLimitAmount = false;\r\n uint256 private timeForISL;\r\n bool    private isSetISLTime = false;\r\n\r\n constructor(\r\n    uint256 _rate,\r\n    address _wallet,\r\n    ERC20 _token,\r\n    uint256 _limit,\r\n    uint256 _cap,\r\n    uint256 _percent,\r\n    uint256 _ICOrate,\r\n    uint256 _limitTime,\r\n    uint256 _timeForISL\r\n  )\r\n  Crowdsale(_rate, _wallet, _token)\r\n  CappedCrowdsale(_cap)\r\n  public\r\n  {\r\n    maxLimit = _limit;\r\n    limit = _limit.div(5);\r\n    minLimit = _limit.div(5);\r\n    limitAmount = _limit.div(10).div(5);\r\n    percent = _percent;\r\n    ICOrate = _ICOrate;\r\n    limitTime = _limitTime;\r\n    timeForISL = _timeForISL;\r\n  }\r\n\r\n  /*\r\n    @dev Owner can reduce bonus percent 25% by default\r\n    each call reduces of 1%\r\n  */\r\n\r\n  function ReduceRate()\r\n    public\r\n    onlyOwner()\r\n  {\r\n    require(rate > ICOrate);\r\n    uint256 totalPercent = ICOrate.div(100).mul(percent);\r\n    rate = ICOrate.add(totalPercent);\r\n    if (percent != 0) {\r\n    percent = percent.sub(1);\r\n    }\r\n  }\r\n\r\n  /*\r\n   @dev Owner can reduce limit\r\n   After call this function owner can not set new limit more than\r\n   value of parametr previous call\r\n */\r\n\r\n function ReduceMaxLimit(uint256 newlLimit)\r\n   public\r\n   onlyOwner()\r\n {\r\n   uint256 totalLimit = maxLimit;\r\n   require(newlLimit >= minLimit);\r\n   require(newlLimit <= totalLimit);\r\n   maxLimit = newlLimit;\r\n }\r\n\r\n  /*\r\n    @dev Owner can change time limit for call ISL()\r\n    @param Unix Date\r\n  */\r\n\r\n  function SetMintTimeLimit(uint256 newTime)\r\n    public\r\n    onlyOwner()\r\n  {\r\n    require(!isSetTime);\r\n    limitTime = newTime;\r\n  }\r\n\r\n  /*\r\n    @dev Owner can block SetMintTimeLimit() FOREVER\r\n  */\r\n\r\n  function blockSetMintTimeLimit()\r\n    public\r\n    onlyOwner()\r\n  {\r\n    isSetTime = true;\r\n  }\r\n\r\n  /*\r\n    @dev View status about the possibility of calling of SetMintTimeLimit function\r\n  */\r\n\r\n  function isblockSetMintTimeLimit()\r\n    public\r\n    view\r\n    returns (bool)\r\n  {\r\n    return isSetTime;\r\n  }\r\n\r\n\r\n  /*\r\n    @dev Owner can add 2B (by Default) to limit per 3 month,\r\n    100B maximum tokens limit (can be reduce via ReduceMaxLimit)\r\n  */\r\n\r\n  function ISL()\r\n    public\r\n    onlyOwner()\r\n  {\r\n    require(now >= limitTime);\r\n    require(limit < maxLimit);\r\n    limit = limit.add(limitAmount);\r\n    limitTime = now + timeForISL;\r\n  }\r\n\r\n  /*\r\n    @dev Owner can change time ISL for next call\r\n    @param time in seconds\r\n  */\r\n\r\n  function SetISLTime(uint256 newTime)\r\n    public\r\n    onlyOwner()\r\n  {\r\n    require(!isSetISLTime);\r\n    timeForISL = newTime;\r\n  }\r\n\r\n  /*\r\n    @dev Owner can block SetISLTime\r\n  */\r\n\r\n  function blockSetISLTime()\r\n    public\r\n    onlyOwner()\r\n  {\r\n    isSetISLTime = true;\r\n    limitAmount = minLimit.div(10);\r\n  }\r\n\r\n  /*\r\n    @dev View status about the possibility of calling of SetISLTime function\r\n  */\r\n\r\n  function isblockSetISLTime()\r\n    public\r\n    view\r\n    returns (bool)\r\n  {\r\n    return isSetISLTime;\r\n  }\r\n\r\n  /*\r\n    @dev View value of timeForISL return time in secods\r\n  */\r\n\r\n  function ReturnISLDays()\r\n    public\r\n    view\r\n    returns (uint256)\r\n  {\r\n    return timeForISL;\r\n  }\r\n\r\n  /*\r\n    @dev Owner can change Limit amount for ISL\r\n    can NOT set more that 100B anyway\r\n  */\r\n\r\n  function SetLimitAmount(uint256 amount)\r\n    public\r\n    onlyOwner()\r\n  {\r\n   require(!isSetLimitAmount);\r\n   uint256 max = maxLimit;\r\n   uint256 total = limit;\r\n   require(max > amount);\r\n\r\n   if(total.add(amount) > max){\r\n    amount = 0;\r\n   }\r\n   require(amount > 0);\r\n   limitAmount = amount;\r\n  }\r\n\r\n  /*\r\n    @dev Owner can block SetLimitAmount\r\n    set 2B by default after block\r\n  */\r\n\r\n  function blockSetLimitAmount()\r\n    public\r\n    onlyOwner()\r\n  {\r\n    isSetLimitAmount = true;\r\n    limitAmount = minLimit.div(10);\r\n  }\r\n\r\n  /*\r\n    @dev View status about the possibility of calling of SetLimitAmount function\r\n  */\r\n\r\n  function isblockSetLimitAmount()\r\n    public\r\n    view\r\n    returns (bool)\r\n  {\r\n    return isSetLimitAmount;\r\n  }\r\n\r\n  /*\r\n    @dev Owner can mint new Tokens up to a certain limit\r\n    @param _beneficiary - receiver\r\n    @param _tokenAmount - amount\r\n  */\r\n\r\n  function MintLimit(\r\n    address _beneficiary,\r\n    uint256 _tokenAmount\r\n  )\r\n    public\r\n    onlyOwner()\r\n  {\r\n\r\n  uint256 _limit = ReturnLimit();\r\n\r\n  uint256 total = token.totalSupply();\r\n  require(total < _limit);\r\n\r\n  if(_tokenAmount.add(total) > _limit ){\r\n    _tokenAmount = 0;\r\n  }\r\n  require(_tokenAmount > 0);\r\n  require(MintableToken(address(token)).mint(_beneficiary, _tokenAmount));\r\n  }\r\n\r\n  /*\r\n    @dev Get amount of total limit for MintLimit function\r\n  */\r\n\r\n  function ReturnLimit()\r\n    public\r\n    view\r\n    returns (uint256)\r\n  {\r\n    return limit;\r\n  }\r\n\r\n  /*\r\n    @dev View amount of minLimit\r\n  */\r\n\r\n  function ReturnMinLimit()\r\n    public\r\n    view\r\n    returns (uint256)\r\n  {\r\n    return minLimit;\r\n  }\r\n\r\n  /*\r\n    @dev View amount of maxLimit\r\n  */\r\n\r\n  function ReturnMaxLimit()\r\n    public\r\n    view\r\n    returns (uint256)\r\n  {\r\n    return maxLimit;\r\n  }\r\n\r\n  /*\r\n    @dev return unix Date time when ISL can be call\r\n  */\r\n\r\n  function iSLDate()\r\n    public\r\n    view\r\n    returns (uint256)\r\n  {\r\n    return limitTime;\r\n  }\r\n\r\n  /*\r\n    @dev owner sale can pause Token\r\n    only through contract sale\r\n  */\r\n\r\n  function pauseTokens()\r\n    public\r\n    onlyOwner()\r\n  {\r\n    require(!isCallPauseTokens);\r\n    PausableToken(address(token)).pause();\r\n  }\r\n\r\n  /*\r\n    @dev owner sale can unpause Token\r\n    only through contract sale\r\n  */\r\n\r\n  function unpauseTokens()\r\n    public\r\n    onlyOwner()\r\n  {\r\n    PausableToken(address(token)).unpause();\r\n  }\r\n\r\n  /*\r\n    @dev Owner can block call pauseTokens FOREVER\r\n  */\r\n\r\n  function blockCallPauseTokens()\r\n    public\r\n    onlyOwner()\r\n  {\r\n    isCallPauseTokens = true;\r\n  }\r\n\r\n  /*\r\n    @dev view status about the possibility of calling pauseTokens()\r\n  */\r\n\r\n  function isblockCallPauseTokens()\r\n    public\r\n    view\r\n    returns (bool)\r\n  {\r\n    return isCallPauseTokens;\r\n  }\r\n\r\n  /*\r\n    @dev owner sale can finish mint FOREVER\r\n  */\r\n\r\n  function finishMint()\r\n    public\r\n    onlyOwner()\r\n  {\r\n    MintableToken(address(token)).finishMinting();\r\n  }\r\n\r\n}\r\n",
  "sourcePath": "C:\\Users\\Ruslan\\Desktop\\FINALVCoTrader-Crowdsale\\contracts\\COTCrowdsale.sol",
  "compiler": {
    "name": "solc",
    "version": "0.4.24+commit.e67f0147.Emscripten.clang"
  },
  "schemaVersion": "2.0.1",
  "updatedAt": "2018-11-01T15:06:48.437Z"
}